:100000000C945D000C9485000C9485000C94850084
:100010000C9485000C9485000C9485000C9485004C
:100020000C9485000C9485000C9485000C9485003C
:100030000C9485000C9485000C9485000C9485002C
:100040000C94A1010C9485000C9411020C94EB010A
:100050000C9485000C9485000C9485000C9485000C
:100060000C9485000C9485000000000024002700FB
:100070002A0000000000250028002B0004040404CE
:100080000404040402020202020203030303030342
:10009000010204081020408001020408102001021F
:1000A00004081020000000080002010000030407FB
:1000B0000000000000000000370311241FBECFEF36
:1000C000D8E0DEBFCDBF11E0A0E0B1E0E8EDF6E0A2
:1000D00002C005900D92A432B107D9F721E0A4E245
:1000E000B1E001C01D92AA3CB207E1F710E0CDE5F6
:1000F000D0E004C02197FE010E946403CC35D107F3
:10010000C9F70E9443020C946A030C940000AF925A
:10011000BF92CF92DF92EF92FF920F931F93CF93F4
:10012000DF936C017B018B01040F151FEB015E0156
:10013000AE18BF08C017D10759F06991D601ED91EB
:10014000FC910190F081E02DC6010995892B79F78A
:10015000C501DF91CF911F910F91FF90EF90DF903C
:10016000CF90BF90AF900895FC01538D448D252F03
:1001700030E0842F90E0821B930B541710F0CF9641
:10018000089501970895FC01918D828D981761F073
:10019000A28DAE0FBF2FB11D5D968C91928D9F5F8A
:1001A0009F73928F90E008958FEF9FEF0895FC0169
:1001B000918D828D981731F0828DE80FF11D858D1C
:1001C00090E008958FEF9FEF0895FC01918D228DAF
:1001D000892F90E0805C9F4F821B91098F73992734
:1001E00008958DE291E00E94E50021E0892B09F459
:1001F00020E0822F089580E090E0892B29F00E9472
:10020000F10081110C9400000895FC01A48DA80F49
:10021000B92FB11DA35ABF4F2C91848D90E0019648
:100220008F739927848FA689B7892C93A089B18968
:100230008C91837080648C93938D848D981306C009
:100240000288F389E02D80818F7D80830895EF926D
:10025000FF920F931F93CF93DF93EC0181E0888F80
:100260009B8D8C8D98131AC0E889F989808185FF50
:1002700015C09FB7F894EE89FF896083E889F989F2
:1002800080818370806480839FBF81E090E0DF91F4
:10029000CF911F910F91FF90EF900895F62E0B8D47
:1002A00010E00F5F1F4F0F731127E02E8C8D8E1102
:1002B0000CC00FB607FCFACFE889F989808185FF69
:1002C000F5CFCE010E940501F1CFEB8DEC0FFD2F94
:1002D000F11DE35AFF4FF0829FB7F8940B8FEA8924
:1002E000FB8980818062CFCFCF93DF93EC01888D33
:1002F0008823B9F0AA89BB89E889F9898C9185FDA1
:1003000003C0808186FD0DC00FB607FCF7CF8C912E
:1003100085FFF2CF808185FFEDCFCE010E940501E0
:10032000E9CFDF91CF910895FC0101900020E9F71A
:100330003197AF01481B590BBC018DE291E00C9441
:1003400087001F920F920FB60F9211242F933F93A5
:100350008F939F93AF93BF938091290190912A012E
:10036000A0912B01B0912C013091280123E0230FA3
:100370002D3758F50196A11DB11D209328018093BA
:10038000290190932A01A0932B01B0932C01809115
:10039000240190912501A0912601B0912701019699
:1003A000A11DB11D8093240190932501A0932601E6
:1003B000B0932701BF91AF919F918F913F912F9162
:1003C0000F900FBE0F901F90189526E8230F0296EE
:1003D000A11DB11DD2CF1F920F920FB60F92112403
:1003E0002F933F934F935F936F937F938F939F933D
:1003F000AF93BF93EF93FF938DE291E00E940501CD
:10040000FF91EF91BF91AF919F918F917F916F91EC
:100410005F914F913F912F910F900FBE0F901F90C2
:1004200018951F920F920FB60F9211242F938F934E
:100430009F93EF93FF93E0913D01F0913E01808106
:10044000E0914301F091440182FD1BC090818091B5
:1004500046018F5F8F7320914701821741F0E09131
:100460004601F0E0E35DFE4F958F80934601FF91DA
:10047000EF919F918F912F910F900FBE0F901F9032
:1004800018958081F4CF789484B5826084BD84B55A
:10049000816084BD85B5826085BD85B5816085BD7F
:1004A00080916E00816080936E0010928100809137
:1004B00081008260809381008091810081608093BF
:1004C0008100809180008160809380008091B100E4
:1004D00084608093B1008091B00081608093B0000F
:1004E00080917A00846080937A0080917A008260A3
:1004F00080937A0080917A00816080937A00809165
:100500007A00806880937A001092C100E0913D01EA
:10051000F0913E0182E08083E0913901F0913A014F
:100520001082E0913B01F0913C0180E180831092C8
:100530004501E0914101F091420186E08083E09124
:100540003F01F0914001808180618083E0913F0113
:10055000F0914001808188608083E0913F01F091BB
:100560004001808180688083E0913F01F0914001EB
:1005700080818F7D8083C1E9D0E0FE0124910DE769
:1005800010E0F8018491882399F090E0880F991F7A
:10059000FC01E859FF4FA591B491FC01EE58FF4FC3
:1005A000859194918FB7F8949C91292B2C938FBFB0
:1005B00095EAE92E90E0F92E20E0C22E20E0D22E1E
:1005C000F7018491FE019491F80124912223B9F05E
:1005D000882339F08330A1F148F58130B9F18230B8
:1005E000C9F1E22FF0E0EE0FFF1FEE58FF4FA5918B
:1005F000B4918FB7F8942C91922B9C938FBF82E18A
:1006000091E00E9494018AE191E00E9494018DE1C1
:1006100091E00E949401C114D10491F20E94F10072
:10062000882309F4CDCF0E940000CACF8730A9F0FB
:100630008830C9F08430A9F6809180008F7D03C096
:10064000809180008F7780938000CBCF84B58F77A7
:1006500084BDC7CF84B58F7DFBCF8091B0008F77ED
:100660008093B000BECF8091B0008F7DF9CFEDE2D6
:10067000F1E01382128288EE93E0A0E0B0E0848380
:100680009583A683B78384E091E09183808385EC92
:1006900090E09587848784EC90E09787868780EC4C
:1006A00090E0918B808B81EC90E0938B828B82EC3D
:1006B00090E0958B848B86EC90E0978B868B118EE7
:1006C000128E138E148E0895EE0FFF1F0590F49175
:0806D000E02D0994F894FFCF1E
:1006D8000000000027018700B4007401E500C30092
:1006E800D70057726974696E67000D0A0048656C17
:0406F8006C6F000023
:00000001FF
